:020000040800F2
:1000000080330020C9010008BD320008212D0008FE
:10001000B93200086D050008BF6300080000000049
:10002000000000000000000000000000ED390008A2
:100030005106000800000000C3390008EF3900082D
:10004000E3010008E3010008E3010008E301000800
:10005000E3010008E3010008E3010008E3010008F0
:10006000E3010008E3010008E3010008E3010008E0
:10007000E3010008E3010008E3010008E3010008D0
:10008000E3010008E3010008E3010008E3010008C0
:1000900009630008E3010008E3010008E301000828
:1000A000E3010008E3010008E3010008E3010008A0
:1000B000E3010008E3010008E3010008E301000890
:1000C000E3010008E3010008E3010008E301000880
:1000D000E3010008E3010008E3010008E301000870
:1000E000E3010008E3010008E301000800F002F862
:1000F00000F05AF80AA090E8000C82448344AAF168
:100100000107DA4501D100F04FF8AFF2090EBAE865
:100110000F0013F0010F18BFFB1A43F0010318473B
:1001200058640000786400000A444FF0000C10F896
:10013000013B13F0070408BF10F8014B1D1108BF65
:1001400010F8015B641E05D010F8016B641E01F805
:10015000016BF9D113F0080F1EBF10F8014BAD1C55
:100160000C1B09D16D1E58BF01F801CBFAD505E073
:1001700014F8016B01F8016B6D1EF9D59142D6D3CD
:10018000704700000023002400250026103A28BFF5
:1001900078C1FBD8520728BF30C148BF0B607047F9
:1001A0001FB51FBD10B510BD00F083F91146FFF754
:1001B000F7FF06F023F900F0A1F903B4FFF7F2FF0F
:1001C00003BC00F0A9F9000009488047094800472E
:1001D000FEE7FEE7FEE7FEE7FEE7FEE7FEE7FEE7F7
:1001E000FEE7FEE704480549054A064B7047000054
:1001F0007B3A0008ED000008802D002080330020AD
:10020000802F0020802F002053EA020C00F069802C
:100210002DE9F04B4FF00006002B1FBFB3FA83F51A
:1002200003FA05F424FA05F65E4012BF1643B2FA4B
:1002300082F502FA05F4C5F120051EBF22FA05FC7D
:1002400044EA0C04203556EA044C4FEA144418BF23
:10025000641C4FF000084FF00009904271EB030C52
:1002600039D3002919BFB1FA81F701FA07F6B0FABC
:1002700080F700FA07F6C7F120071EBF20FA07FC37
:1002800046EA0C062037B6FBF4FCA7EB0507103F47
:1002900007F01F0BCBF120060CFA0BFB2CFA06F62D
:1002A00044BFB3460026202FA4BF5E464FF0000B8C
:1002B0005BEA060C08BF4FF0010B19EB0B09ABFB17
:1002C000027C48EB0608C01B06FB02CC0BFB03CCF0
:1002D00071EB0C01C1E70B46024641464846BDE8BA
:1002E000F08B13B54FF000004FF00001AFF300802A
:1002F000BDE81C407047B2F120030AD5C2F12003CB
:1003000020FA02F001FA03F321FA02F140EA0300B5
:10031000704721FA03F04FF000017047032A40F2C2
:10032000308010F0030C00F0158011F8013BBCF197
:10033000020F624498BF11F801CB00F8013B38BFAF
:1003400011F8013BA2F1040298BF00F801CB38BFBD
:1003500000F8013B11F0030300F02580083AC0F0DB
:10036000088051F8043B083A51F804CBA0E8081083
:10037000F5E7121D5CBF51F8043B40F8043BAFF3B6
:100380000080D20724BF11F8013B11F801CB48BF10
:1003900011F8012B24BF00F8013B00F801CB48BF46
:1003A00000F8012B704710B5203AC0F00B80B1E87F
:1003B0001850203AA0E81850B1E81850A0E818509A
:1003C000BFF4F5AF5FEA027C24BFB1E81850A0E8A3
:1003D000185044BF18C918C0BDE810405FEA827CBD
:1003E00024BF51F8043B40F8043B08BF7047D207D4
:1003F00028BF31F8023B48BF11F8012B28BF20F875
:10040000023B48BF00F8012B704702F0FF0343EAAC
:10041000032242EA024200F002B84FF0000204292F
:10042000C0F0128010F0030C00F01B80CCF1040C23
:10043000BCF1020F18BF00F8012BA8BF20F8022B57
:10044000A1EB0C0100F00DB85FEAC17C24BF00F8FD
:10045000012B00F8012B48BF00F8012B70474FF02B
:10046000000200B5134694469646203922BFA0E804
:100470000C50A0E80C50B1F12001BFF4F7AF090710
:1004800028BFA0E80C5048BF0CC05DF804EB890001
:1004900028BF40F8042B08BF704748BF20F8022B44
:1004A00011F0804F18BF00F8012B7047704770475C
:1004B0007047754600F02CF8AE4605006946534675
:1004C00020F00700854618B020B5FFF78BFEBDE889
:1004D00020404FF000064FF000074FF000084FF0AB
:1004E000000B21F00701AC46ACE8C009ACE8C0093C
:1004F000ACE8C009ACE8C0098D46704710B50446A9
:10050000AFF300802046BDE81040FFF756BE000064
:10051000004870471C2D002001491820ABBEFEE7A3
:10052000260002007047000010B586B0044600F0B7
:10053000B3FA00BF0C48C06920F001000A49C86145
:1005400000BF00200290049401200590002001903B
:1005500001A902A800F0E6F910B1002006B010BD14
:1005600000F038FA0120F9E70020024000BFFEE762
:100570000346042B15D007DC7BB1012B0ED0022BD8
:100580000DD0032B12D10BE0202B0BD0212B0AD046
:10059000222B09D0232B09D107E008E007E006E071
:1005A00005E004E003E002E001E000E000BF00BF7E
:1005B000002070470020704710B50022044905480C
:1005C00003F0CDFC0449034803F0C2FC002010BD39
:1005D0000C240020481B00200C20002070B504468D
:1005E0000E462146164803F0B3FC154803F08CFC78
:1005F000002520E0625D1349134800680A54124840
:10060000D0E900305A1C40F100000F49C1E9002038
:100610000E48D0E90020521C40F100000B49C1E90E
:1006200000204FF480620023074903C9FFF7ECFD67
:1006300005480CC06D1C3068A842DBD8002070BD96
:10064000481B002088120020E0100020F01000203D
:10065000704772B600BFFEE70021074AD161074923
:10066000096941F00401054A11611146096941F027
:10067000400111617047000028170020002002404F
:100680000021074AD1610749096941F00201054A81
:10069000116111464861096941F0400111617047DB
:1006A00028170020002002400022054BDA61054A8D
:1006B000126942F00102034B1A6101807047000089
:1006C000281700200020024000201E49C96801F0C0
:1006D000100139B11C49C96941F002011A4AD161BE
:1006E00040F010001749C96801F0040139B11649FA
:1006F000C96941F00101144AD16140F00400114977
:10070000C96901F0010169B10F49C96941F00401EA
:100710000D4AD16100BF0B49C96921F00101094AA5
:10072000D16100BF00BF40F20111884206D10549E6
:10073000C96921F00101034AD16101E00149C860A2
:1007400000BF7047002002402817002070B5044603
:1007500000F04AFB054609E0601C38B124B100F006
:1007600043FB401BA04201D9032070BD1248C06862
:1007700000F001000028EFD10F48C06800F0200011
:1007800020B100BF20200C49C86000BF0A48C068E3
:1007900000F0100048B90848C06900F0010020B915
:1007A0000548C06800F0040018B1FFF78DFF012074
:1007B000DBE70020D9E70000002002402DE9F041EE
:1007C00005460E46174600F067F900BF1248C0699B
:1007D00020F001001049C86100BF002415E016F8A0
:1007E0001400012101EB4401715C40EA01284246FA
:1007F00000232946012000F0F7F818B14FF0FF3030
:10080000BDE8F081AD1C601C84B2BC42E7DB00F0A7
:10081000E1F80020F4E70000002002402DE9F84F45
:100820008046894617469A46DDF828B0002545E0FF
:1008300000243AE00B9850B1F81DC11700EB51713C
:10084000C91005FB01411BF8011000910BE0F81DD8
:10085000C11700EB5171C91005FB01411BF80110D4
:10086000C943C9B2009100261BE0802030410099A5
:10087000084050B109EB0502D1B208EBC402324482
:10088000D0B2012202F0C0FD09E009EB0502D1B2AD
:1008900008EBC4023244D0B2002202F0B5FD701C55
:1008A000C6B2082EE1DB601CC4B2F81DC11700EB14
:1008B0005171B4EBE10FBDDB681CC5B25545B7DB28
:1008C00002F012FDBDE8F88F70B50A480468001DFB
:1008D0000568001D0668344454B1082206492046C4
:1008E00002F0F2FB042204491031284602F0ECFB2E
:1008F00070BD0000E8F7FF1F4A11002070B50446E4
:1009000000F072FA06462546681C10B104480078CB
:10091000054400BF00F068FA801BA842FAD370BDFE
:100920000C1100202DE9F04104460E460127002558
:1009300000BF2648007E012802D10220BDE8F081D8
:1009400001202249087600BF2068022813D14CF20A
:100950005030FFF7FBFE90BB0120FFF77DFE4CF20D
:100960005030FFF7F3FE07461948006920F00400F5
:100970001749086123E04CF25030FFF7E7FEF0B969
:100980004FF0FF303060A56812E02846FFF778FE90
:100990004CF25030FFF7DAFE07460D48006920F0B0
:1009A00002000B4908610FB1356007E005F580656D
:1009B000D4E9021001EB8020A842E6D800BF00BFB6
:1009C00000200249087600BF3846B7E72817002004
:1009D000002002400348006940F08000014908619E
:1009E00000207047002002402DE9FE4F05468B464F
:1009F00017469846012600240020029000BF244894
:100A0000007E012802D10220BDE8FE8F012020498E
:100A1000087600BF4CF25030FFF798FE064686BBC2
:100A2000012D02D10120029006E0022D02D1022008
:100A3000029001E00420029000241EE02201B94649
:100A4000C24648465146FFF756FC80B2019002204C
:100A500000FB04B000900199FFF726FE4CF25030E5
:100A6000FFF774FE06460B48006920F001000949B3
:100A7000086106B104E0601CC4B202988442DDDB68
:100A800000BF00BF00200249087600BF3046BBE728
:100A9000281700200020024000200849096901F0C1
:100AA000800151B10649054A51600649516011461D
:100AB000096901F0800101B1012070470020024066
:100AC00023016745AB89EFCD2DE9F84703460022A6
:100AD00094466EE14FF0010808FA02F4D1F8008064
:100AE00008EA0400A0427DD1DFF8DCA2D1F804803E
:100AF000A8EB0A09D0453AD014DCB8F1030F50D066
:100B000009DCB8F1000F31D0B8F1010F1CD0B8F1F9
:100B1000020F49D120E0B8F1110F18D0B8F1120F2F
:100B200042D11EE0B9F5881F25D006DCB9F5803F1B
:100B300020D0B9F5801F37D11AE0B9F5001F18D0C1
:100B4000B9F5041F30D117E0D1F80CC02DE0D1F871
:100B50000C8008F1040C28E0D1F80C8008F1080C96
:100B600023E0D1F80C8008F10C0C1EE000BF00BFA0
:100B700000BF00BF00BF00BFD1F80880B8F1000F70
:100B800002D14FF0040C0BE0D1F80880B8F1010F4E
:100B900003D14FF0080C1C6102E04FF0080C5C61BF
:100BA00003E04FF0000C00E000BF00BFFF2801D8B9
:100BB000984601E003F104084646FF2802D84FEAB0
:100BC000820803E0A2F108084FEA88084746D6F8F1
:100BD00000804FF00F0909FA07F928EA09080CFA12
:100BE00007F900E088E048EA0908C6F80080D1F873
:100BF000048008F08058B8F1805F7DD100BFDFF835
:100C0000CC81D8F8188048F00108DFF8C091C9F805
:100C10001880C846D8F8188008F00108CDF8008080
:100C200000BF00BF4FEAB9384FEA920958F829507F
:100C30004FEA82784FEA18794FF00F0808FA09F85E
:100C400025EA0805DFF88881434502D14FF0000806
:100C500016E0DFF88081434502D14FF001080FE034
:100C6000DFF87481434502D14FF0020808E0DFF855
:100C70006C81434502D14FF0030801E04FF00408B6
:100C80004FEA82794FEA197908FA09F848EA050526
:100C9000DFF84C814FEA920948F82950D1F80480D6
:100CA00008F48018B8F5801F0AD1DFF83881D8F829
:100CB000008048EA0008DFF82C91C9F8008009E0BC
:100CC000DFF82081D8F8008028EA0008DFF81491C6
:100CD000C9F80080D1F8048008F40018B8F5001FA6
:100CE00010D1DFF8008108F10408D8F8008048EA44
:100CF0000008DFF8F09000E05AE009F10409C9F8B3
:100D000000800DE0DFF8DC8008F10408D8F80080EE
:100D100028EA0008DFF8CC9009F10409C9F800803E
:100D2000D1F8048008F40038B8F5003F0ED1DFF8A0
:100D3000B480A8F10408D8F8008048EA0008DFF879
:100D4000A490A9F10409C9F800800DE0DFF89480AF
:100D5000A8F10408D8F8008028EA0008DFF8849099
:100D6000A9F10409C9F80080D1F8048008F480389A
:100D7000B8F5803F0ED1DFF86C80A8F10808D8F8EC
:100D8000008048EA0008DFF85C90A9F10809C9F87A
:100D900000800DE0DFF84C80A8F10808D8F800804A
:100DA00028EA0008DFF83C90A9F10809C9F800809A
:100DB000521CD1F8008028FA02F8B8F1000F7FF435
:100DC00089AEBDE8F8870000000011100010024055
:100DD00000080140000C01400010014000140140D7
:100DE0000800014008040140014800687047000005
:100DF0000411002070B504460CB9012070BD94F8B0
:100E00003D0028B9002084F83C00204600F08CF911
:100E1000242084F83D002068006820F0010021684B
:100E200008602068006840F400402168086020687D
:100E3000006820F400402168086001F0D9FA0546F6
:100E40005C496068884206D85B48854201D201202F
:100E500007E0002005E05948854201D2012000E06A
:100E60000020012800D1C9E75548B5FBF0F62068FD
:100E7000406820F03F003043216848604D49606879
:100E8000884201D8701C07E04FF4967070434FF40D
:100E90007A71B0FBF1F0401C2168096A21F03F0132
:100EA00008432168086243496068884214D8681E74
:100EB00061684900B0FBF1F0401CC0F30B0004284E
:100EC00001D204203DE0681E61684900B0FBF1F0EA
:100ED000401CC0F30B0034E0A06838B9681E61689C
:100EE00001EB4101B0FBF1F0401C0AE0681E6168B3
:100EF00001EBC10202EB0111B0FBF1F0401C40F428
:100F00008040C0F30B0008B901201AE0A06848B97E
:100F1000681E616801EB4101B0FBF1F0401CC0F3B9
:100F20000B000CE0681E616801EBC10202EB0111CD
:100F3000B0FBF1F0401CC0F30B0040F4804040F4E3
:100F400000402168C9694CF6FF729143084321684B
:100F5000C861D4E9070108432168096821F0C0018C
:100F6000084321680860D4E90310084321688968B0
:100F700048F2FF329143084321688860D4E90501B3
:100F800008432168C96821F0FF0108432168C8604F
:100F90002068006840F0010021680860002020649B
:100FA000202084F83D000020206384F83E0000BF2C
:100FB00024E70000A086010080841E0000093D0097
:100FC00040420F002DE9FC5F04460F4690469946CB
:100FD000DDE90CAB0E9EFFF707FF054694F83D00D8
:100FE00020287DD1192301224D492046009501F08A
:100FF0005CFF10B10220BDE8FC9F00BF94F83C00EC
:10100000012801D10220F6E7012084F83C0000BF4E
:101010002068006800F0010028B92068006840F0EE
:101020000100216808602068006820F400602168E1
:101030000860212084F83D00402084F83E00002014
:101040002064C4F824A0A4F82AB0608D2085354817
:10105000E0624B46424639462046CDE9006501F044
:1010600081FE08B10120C6E731E02A46314620461C
:1010700001F0F7FF50B1206C042805D1206800680A
:1010800040F40070216808600120B4E7606A0078CD
:1010900021680861606A401C6062208D401E2085C6
:1010A000608D401E608520684069C0F3800070B18B
:1010B000208D60B1606A007821680861606A401C18
:1010C0006062208D401E2085608D401E6085208DD1
:1010D0000028CAD12A463146204601F0B3FE00E07E
:1010E0001CE050B1206C042805D12068006840F451
:1010F00000702168086001207DE72068006840F4E6
:10110000007021680860202084F83D00002084F8E9
:101110003E0000BF84F83C0000BF6CE702206AE795
:10112000020010000000FFFF10B586B0044600204A
:10113000029003900490059015492068884225D1BB
:1011400000BF1448806940F00800124988610846D1
:10115000806900F00800019000BF00BFC02002902D
:10116000122003900320059002A90B48FFF7ACFC66
:1011700000BF0848C06940F400100649C86108462D
:10118000C06900F40010019000BF00BF06B010BDA0
:101190000054004000100240000C01400348006869
:1011A0000349097808440149086070470411002088
:1011B0000C11002010B50848006840F010000649E6
:1011C0000860032000F0A8F80F2000F007F800F0F6
:1011D0002BF8002010BD00000020024070B504462E
:1011E0000E4800784FF47A71B1FBF0F00C490968B1
:1011F000B1FBF0F5284601F075FB08B1012070BD88
:10120000102C07D200222146501E00F047F8054856
:10121000046001E00120F2E70020F0E70C1100205B
:10122000101100200811002008B500BF1148806986
:1012300040F001000F4988610846806900F0010014
:10124000009000BF00BF00BF0846C06940F080505A
:10125000C8610846C06900F08050009000BF00BF20
:1012600000BF0549486820F0E06040F00070486029
:1012700000BF08BD001002400000014001460846C2
:10128000002809DB00F01F0301229A4043099B005C
:1012900003F1E023C3F8002100BF70472DE9F05FA0
:1012A00080460D461646002705F08CF8074639465D
:1012B0002A46334601F00700C0F1070ABAF1040FCD
:1012C00002D94FF0040A01E0C0F1070AD14600F14B
:1012D000040ABAF1070F02D24FF0000A01E0A0F1B0
:1012E000030AD4464FF0010A0AFA09FAAAF1010AE0
:1012F0000AEA020A0AFA0CFA4FF0010B0BFA0CFB8D
:10130000ABF1010B0BEA030B4AEA0B042146404602
:1013100005F060F8BDE8F09F00BF00F00702064B43
:1013200019684FF6FF031940044B0B4343EA0221AF
:10133000014B196000BF70470CED00E00000FA059A
:1013400070B505460C4604F08000802808D104F0F2
:10135000070000EB800605F1280000EBC60105E060
:1013600004EB840605F5B47000EBC6011AB9002041
:101370000873CB8004E0012008730B81180C4881AE
:10138000002070BD704770B504460D4605EB85031F
:1013900004F1280101EBC3014A692946D4F8EC02A3
:1013A00003F050F970BD70B504460D4605EB85039A
:1013B00004F5B47101EBC3014A692946D4F8EC0283
:1013C00003F0C0F970BD70B504460E4606F080000B
:1013D00080280AD106F0070000EB800104F1280004
:1013E00000EBC1050120687009E006F0070000EB82
:1013F000800104F5B47000EBC1050020687006F0B0
:101400000700287000BF94F8A802012801D102202B
:1014100070BD012084F8A80200BF2946206804F0AE
:101420004BF800BF002084F8A80200BF00BFEFE720
:1014300070B504460E4606F00F006168884201D977
:10144000012070BD06F0800080280AD106F0070058
:1014500000EB800104F1280000EBC1050120687059
:1014600009E006F0070000EB800104F5B47000EB22
:10147000C105002068700020A87006F007002870E1
:1014800000BF94F8A802012801D10220D9E7012069
:1014900084F8A80200BF2946206804F069F900BF5B
:1014A000002084F8A80200BF00BFCAE72DE9F04180
:1014B00005460C46174607F48040002850D028689F
:1014C000B0F85010207801EBC000801C296801F5AD
:1014D000806131F81000C0F30906A069B04203D35F
:1014E000A069801BA06101E00020A061A069A8B9EB
:1014F00000BF22785200296831F812104BF68F7223
:1015000001EA020080F4005040F4004141F0800103
:1015100023785B002A6822F8131000BF07F0400010
:10152000A8B100BF00BF22785200296831F812101C
:1015300048F68F7201EA020040F4004141F0C00118
:1015400023785B002A6822F8131000BF00BF002E2A
:1015500055D0228961693346286804F0E1FE4EE0E7
:101560002868B0F85010207801EBC000801D296871
:1015700001F5806131F81000C0F30906A069B0429E
:1015800003D3A069801BA06101E00020A061A069D5
:10159000A8B900BF22785200296831F812104BF622
:1015A0008F7201EA020080F4005040F4004141F0E3
:1015B000800123785B002A6822F8131000BF07F02F
:1015C0004000A8B900BF00BF22785200296831F856
:1015D000121048F68F7201EA020040F4004141F017
:1015E000C00123785B002A6822F8131000BF00BFF7
:1015F0002EB1628961693346286804F091FE304655
:10160000BDE8F0812DE9F04705460C46904608F00C
:10161000400000287ED02868B0F85010207801EBF8
:10162000C000801C296801F5806131F81000C0F30A
:101630000907A069B84203D9A069C01BA06101E0F5
:101640000020A061A06900287ED100BF6078C0B9E9
:1016500000BF29682A68B2F850201144227802237A
:1016600003EBC20201F5806303EB420000BF028876
:10167000C2F309020280028842F40042028000BFE5
:1016800013E06078012810D100BF28682A68B2F8FA
:10169000502010442278022303EBC20200F580633D
:1016A00003EB420100220A8000BF00BF00BF29688F
:1016B0006078F8B900BF2B68D5F800C0BCF850C0FE
:1016C000634494F800C04FF0060909EBCC0C03F515
:1016D000806909EB4C0000BFB0F800C0CCF3090CE6
:1016E000A0F800C0B0F800C04CF4004CA0F800C056
:1016F00000BF12E0607801280FD12868B0F85000D0
:1017000001442078062303EBC00001F5806303EB5E
:10171000400200E0B7E00020108000BF217828469A
:10172000FFF731FE08F48040002816D000BF00BF4C
:1017300022785200296831F8121048F68F7201EAB7
:10174000020040F4004100E008E041F481412378C8
:101750005B002A6822F8131000BFD7E108F480402C
:10176000A8B100BF00BF22785200296831F81210DA
:1017700048F68F7201EA020040F4004141F48141D1
:1017800023785B002A6822F8131000BF00BF94F88A
:1017900024000128E1D1606938446061E06938447F
:1017A000E0612169206A884204D32669206A801B8F
:1017B00020620BE0206A20B93E46002084F8240015
:1017C00004E0002084F82400266A206200BF6078CC
:1017D000E8BB00BF2A682968B1F850100A44217894
:1017E000022303EBC10102F5806303EB41010846CC
:1017F00000BF0388C3F3090303803E2E10D900BF46
:10180000710906F01F0303B9491E03884FF4004C09
:101810004CEA812C1FFA8CFC43EA0C03038014E091
:1018200026B9038843F4004303800EE000BF71082B
:1018300006F0010303B1491C03884FF6FF7C0CEA54
:10184000812C43EA0C03038000BF00BF13E0FFE7D5
:10185000607801280FD100BF28682A68B2F85020AC
:1018600010442278022303EBC20200F5806303EBED
:1018700042010E8000BF00BFB3B2228961692868AF
:1018800004F07DFD42E12868B0F85010207801EBAB
:10189000C000801D296801F5806131F81000C0F397
:1018A0000907A069B84203D3A069C01BA06101E089
:1018B0000020A061A06900287ED100BF6078C0B977
:1018C00000BF29682A68B2F8502011442278022308
:1018D00003EBC20201F5806303EB420000BF028804
:1018E000C2F309020280028842F40042028000BF73
:1018F00013E06078012810D100BF28682A68B2F888
:10190000502010442278022303EBC20200F58063CA
:1019100003EB420100220A8000BF00BF00BF29681C
:101920006078F8B900BF2B68D5F800C0BCF850C08B
:10193000634494F800C04FF0060909EBCC0C03F5A2
:10194000806909EB4C0000BFB0F800C0CCF3090C73
:10195000A0F800C0B0F800C04CF4004CA0F800C0E3
:1019600000BF10E0607801280DD12868B0F8500061
:1019700001442078062303EBC00001F5806303EBEC
:1019800040020020108000BF21782846FFF7FBFCB2
:1019900008F48040002816D100BF00BF2278520012
:1019A000296831F8121048F68F7201EA020040F4FB
:1019B000004141F4814100E006E023785B002A68A1
:1019C00022F8131000BFA1E008F48040A8B900BFBE
:1019D00000BF22785200296831F8121048F68F7241
:1019E00001EA020040F4004141F4814123785B00A8
:1019F0002A6822F8131000BF00BF94F824000128C1
:101A00007ED1606938446061E0693844E0612169F1
:101A1000206A884204D32669206A801B20620BE07A
:101A2000206A20B93E46002084F8240004E0266A9B
:101A30000020206284F8240000BF2A68607870BB10
:101A400000BFD5F800C02968B1F850108C44217847
:101A50004FF0060909EBC1010CF5806909EB410162
:101A6000084600BFB0F80090C9F30909A0F800903B
:101A70003E2E15D900BF710906F01F09B9F1000FFC
:101A800000D1491EB0F800904FF4004A4AEA812A7A
:101A90001FFA8AFA49EA0A09A0F800901BE01CE044
:101AA00036B9B0F8009049F40049A0F8009012E06F
:101AB00000BF710806F00109B9F1000F00D0491C00
:101AC000B0F800904FF6FF7A0AEA812A49EA0A093B
:101AD000A0F8009000BF00BF0FE0607801280CD193
:101AE0002868B0F8500002442078062101EBC000BD
:101AF00002F5806101EB40031E8000BFB3B200E03D
:101B000004E062896169286804F039FC00BF22782A
:101B10005200296831F8121048F6BF7201EA02003B
:101B200080F0100080F0200040F4004141F080027D
:101B300023785B00296821F8132000BF0020BDE84E
:101B4000F087024601F0070000EB800302F5B47055
:101B500000EBC300C06970472DE9F04705460E460B
:101B600090461F464FF0000906F0800080280AD1F9
:101B700006F0070000EB800105F1280000EBC1042E
:101B80000120607009E006F0070000EB800105F518
:101B9000B47000EBC1040020607006F007002070F4
:101BA000C4F81080E770022F01D10020207100BF1F
:101BB00095F8A802012802D10220BDE8F087012093
:101BC00085F8A80200BF2146286803F019FA00BF73
:101BD000002085F8A80200BF4846EEE72DE9F04155
:101BE00005460E461746984606F0070000EB8001B2
:101BF00005F5B47000EBC1046761C4F818800020DB
:101C0000E061607006F0070020702146286803F04C
:101C10004AFE0020BDE8F08170B504460D4605F08F
:101C200007006168884201D9012070BD05F080007D
:101C300080280AD105F0070000EB800104F128009C
:101C400000EBC1060120707007E005EB850104F58B
:101C5000B47000EBC106002070700120B07005F078
:101C60000700307000BF94F8A802012801D10220BB
:101C7000DBE7012084F8A80200BF3146206803F0AA
:101C8000E4FD05F0070020B904F52C71206803F08D
:101C90006CFD00BF002084F8A80200BF00BFC4E7AD
:101CA0002DE9F04105460E4690461F4606F0070016
:101CB00000EB800105F1280000EBC104C4F814809A
:101CC000A761012084F8240027620020E061012040
:101CD000607006F0070020702146286803F0E3FDDD
:101CE0000020BDE8F0817FB50446206804F014FBB5
:101CF000064606F40040B0F5004F03D1204601F03F
:101D0000E7FB7FBD06F48060B0F5806F10D12068DE
:101D1000B0F844004FF6FF3108402168A1F84400B4
:101D2000204600F08DF90021204600F0A9F9E8E7EF
:101D300006F48040B0F5804F09D12068B0F8440027
:101D40004BF6FF7108402168A1F84400D9E706F47A
:101D50000050B0F5005F09D12068B0F844004DF69E
:101D6000FF7108402168A1F84400CAE706F48050DA
:101D7000B0F5805F1ED12068B0F840004FF6FB71CF
:101D800008402168A1F840002068B0F840004FF6F4
:101D9000F77108402168A1F84000204600F062F980
:101DA0002068B0F844004EF6FF7108402168A1F8A1
:101DB0004400A6E706F40060B0F5006F56D1002598
:101DC00007E06900206830F811002DF81500681C44
:101DD000C5B2082DF5D32068B0F8400040F00100EE
:101DE0002168A1F840002068B0F840004FF6FE716D
:101DF00008402168A1F8400000BF2068B0F8440006
:101E000000F480600028F8D02068B0F844004FF655
:101E1000FF3108402168A1F84400002507E03DF8A3
:101E200015006A00216821F81200681CC5B2082D4F
:101E3000F5D32068B0F8400040F008002168A1F810
:101E400040002068B0F844004FF2FF71084021685C
:101E5000A1F844002068B0F8400040F00400216878
:101E6000A1F84000204600F04DF94AE706F4007062
:101E7000B0F5007F0CD12068B0F844004FF6FF5158
:101E800008402168A1F84400204600F0F2F838E745
:101E900006F48070B0F5807F09D12068B0F8440066
:101EA0004FF6FF6108402168A1F8440029E700BF10
:101EB00027E730B585B0044614B9012005B030BD20
:101EC00094F8A90228B9002084F8A802204600F05E
:101ED00095F8032084F8A902206803F03CFC142242
:101EE00004F110016846FEF75EFA94E80F0003F073
:101EF000DFFA20B1022084F8A9020120DEE70021E8
:101F0000206804F032FA00252AE0012105EB850261
:101F100004F1280000EBC200417005EB850104F1DB
:101F2000280000F83150002105EB850200EBC200CB
:101F3000C17005EB850204F1280000EBC2000161CD
:101F400005EB850204F1280000EBC200416105EBBE
:101F5000850204F1280000EBC2008161681CC5B253
:101F60006068A842D1D800252AE0002105EB85024F
:101F700004F5B47000EBC200417005EB850104F577
:101F8000B47000F83150002105EB850200EBC2006F
:101F9000C17005EB850204F5B47000EBC20001616D
:101FA00005EB850204F5B47000EBC200416105EB5E
:101FB000850204F5B47000EBC2008161681CC5B2F3
:101FC0006068A842D1D8142204F110016846FEF7D7
:101FD000EAF994E80F0003F0B3FB20B1022084F883
:101FE000A90201206AE7002084F82400012084F877
:101FF000A902206803F0A1FB00205FE738B5044682
:102000000D492068884215D100BF0C48C06940F4D2
:1020100000000A49C8610846C06900F40000009049
:1020200000BF00BF002211461420FFF737F914202B
:10203000FFF724F938BD0000005C004000100240AA
:1020400070B504460125A068022801D0FEF701FB07
:102050002946D4F8EC0202F0A9FCD4F8EC0202F014
:102060005BFC70BD10B50446D4F8EC0202F082FCB3
:1020700010BD10B50446D4F8EC0202F086FC10BD89
:1020800070B504460D4600BF94F8A802012801D19E
:10209000022070BD012084F8A80200BF84F82450FB
:1020A0002946206804F064F900BF002084F8A802E3
:1020B00000BF00BFEDE710B5044604F52C71D4F85D
:1020C000EC0202F08AFC10BD10B5044600BF94F883
:1020D000A802012801D1022010BD012084F8A80225
:1020E00000BF206804F007F901212046FFF74AF9F4
:1020F000206803F01FFB00BF002084F8A80200BF87
:1021000000BFE9E710B50446D4F8EC0202F0BEFCCB
:10211000A06928B10348006840F006000149086042
:1021200010BD000010ED00E0F8B5044600260025C3
:10213000207800F0010000286BD000274348C069D8
:1021400000F0805070B900BF4048C06940F0805036
:102150003E49C8610846C06900F08050009000BF49
:1021600000BF01273A48006800F48070B0B93848D1
:10217000006840F4807036490860FEF735FE064678
:1021800006E0FEF731FE801B642801D90320F8BD6C
:102190002F48006800F480700028F2D02B48006AB5
:1021A00000F440752DB3A08800F44070A84220D000
:1021B0002648006A20F44075012026490860002066
:1021C00008602248056205F0010090B1FEF70CFEA0
:1021D000064608E0FEF708FE801B41F2883188427F
:1021E00001D90320D3E71948006A00F00200002853
:1021F000F0D01648006A20F4407061680843134923
:102200000862012F04D10846C06920F08050C861DF
:1022100000BF207800F00200022807D10B48406878
:1022200020F44040A168084308494860207800F045
:102230001000102807D10548406820F48000E168AC
:102240000843024948600020A1E700000010024056
:10225000007000404004424270B504460D460CB97F
:10226000012070BD5A48006800F00700A8420ED255
:102270005748006820F00700284355490860084681
:10228000006800F00700A84201D00120E9E72078AB
:1022900000F0020002281DD1207800F0040004287C
:1022A00005D14C48406840F4E0604A4948602078D5
:1022B00000F00800082805D14648406840F4605006
:1022C000444948604348406820F0F000A168084352
:1022D00040494860207800F0010078B36068012828
:1022E00006D13C48006800F4003090B90120B8E7FE
:1022F0006068022806D13748006800F0007040B9D5
:102300000120AEE73348006800F0020008B9012060
:10231000A7E73048406820F00300616808432D4972
:102320004860FEF761FD064609E0FEF75DFD801B93
:1023300041F28831884202D9032092E707E025481C
:10234000406800F00C006168B0EB810FEDD12048CF
:10235000006800F00700A8420ED91D48006820F070
:10236000070028431A4908600846006800F0070083
:10237000A84201D0012074E7207800F0040004286E
:1023800007D11448406820F4E060E168084311492F
:102390004860207800F00800082808D10D484068FF
:1023A00020F46050216940EAC1000A49486000F009
:1023B0002FF808494968C1F30311074A515CC84026
:1023C0000649086006480068FEF708FF002048E755
:1023D00000200240001002405E650008101100203D
:1023E000081100200148006870470000101100200B
:1023F00000B5FFF7F7FF04494968C1F30221034A1A
:10240000515CC84000BD0000001002406E6500082D
:1024100070B500210022002400230020134D6968BC
:1024200001F00C05F5B1042D02D0082D19D101E001
:102430000F4819E00F4DC1F38346AB5D01F48035C1
:1024400055B10A4D6D68C5F340450B4E725D084DA0
:102450005D43B5FBF2F402E0084D03FB05F42046B2
:1024600002E000BF024800BF00BF70BD0010024084
:1024700000127A004C6500085C65000800093D0008
:10248000F8B504460CB90120F8BD207800F0010031
:10249000002878D0F848406800F00C0004280CD0E0
:1024A000F548406800F00C00082811D1F248406857
:1024B00000F48030B0F5803F0AD1EF48006800F4A6
:1024C000003000285FD0606800285CD10120DBE785
:1024D00000BF6068B0F5803F06D1E748006840F46F
:1024E0008030E549086028E0606858B9E248006833
:1024F00020F48030E04908600846006820F480201D
:1025000008601AE06068B0F5A02F0BD1DA480068C7
:1025100040F48020D84908600846006840F48030C4
:1025200008600AE0D448006820F48030D24908608E
:102530000846006820F48020086000BF606888B109
:10254000FEF752FC054606E0FEF74EFC401B6428F1
:1025500001D9032098E7C848006800F4003000283B
:10256000F2D010E0FEF740FC054606E0FEF73CFC2A
:10257000401B642801D9032086E7BF48006800F4A7
:1025800000300028F2D1207800F00200022857D154
:10259000B948406800F00C0050B1B748406800F0FE
:1025A0000C00082818D1B448406800F4803098B96D
:1025B000B148006800F0020020B12069012801D074
:1025C000012061E7AC48006820F0F800616940EA4A
:1025D000C100A949086033E02069E8B10120A7499A
:1025E0000860FEF701FC054606E0FEF7FDFB401B18
:1025F000022801D9032047E79F48006800F0020045
:102600000028F2D09C48006820F0F800616940EA98
:10261000C1009949086013E0002098490860FEF75E
:10262000E3FB054606E0FEF7DFFB401B022801D96D
:10263000032029E79048006800F002000028F2D14A
:10264000207800F0080008282DD1A069B8B1012039
:102650008B490860FEF7C8FB054606E0FEF7C4FBA1
:10266000401B022801D903200EE78348406A00F08E
:1026700002000028F2D0012001F0A4F913E00020AC
:102680007F490860FEF7B0FB054606E0FEF7ACFBAD
:10269000401B022801D90320F6E67748406A00F083
:1026A00002000028F2D1207800F00400042873D141
:1026B00000277148C06900F0805070B900BF6E48B3
:1026C000C06940F080506C49C8610846C06900F09C
:1026D0008050009000BF00BF01276A48006800F4E6
:1026E0008070B0B96748006840F480706549086040
:1026F000FEF77AFB054606E0FEF776FB401B6428F2
:1027000001D90320C0E65F48006800F4807000280B
:10271000F2D000BFE068012806D15748006A40F0B7
:1027200001005549086227E0E06858B95248006A3C
:1027300020F00100504908620846006A20F00400B9
:10274000086219E0E06805280BD14B48006A40F0A8
:102750000400494908620846006A40F00100086226
:102760000AE04548006A20F0010043490862084633
:10277000006A20F00400086200BFE068A0B1FEF724
:1027800033FB054609E0FEF72FFB401B41F2883181
:10279000884202D9032077E622E03748006A00F039
:1027A00002000028EFD012E0FEF71EFB054608E00D
:1027B000FEF71AFB401B41F28831884201D9032001
:1027C00062E62D48006A00F002000028F0D1012FD7
:1027D00005D12948C06920F080502749C86100BF51
:1027E000E069C8B32448406800F00C00082860D0B5
:1027F000E069022848D1002020490866FEF7F4FA73
:10280000054606E0FEF7F0FA401B022801D9032036
:102810003AE61948006800F000700028F2D1206AFA
:10282000B0F5803F07D11448406820F40030A1681B
:10283000084311494860D4E9080108430E49496832
:1028400021F4741108430C49486001200B490866C3
:10285000FEF7CAFA054607E03DE0FEF7C5FA401B61
:10286000022801D903200FE60348006800F0007039
:102870000028F2D02FE00000001002400000424289
:102880008004424200700040002014490866FEF7B0
:10289000ABFA054606E0FEF7A7FA401B022801D96D
:1028A0000320F1E50E48006800F000700028F2D126
:1028B00011E0E069012800D1E6E50948466806F420
:1028C0008031206A814204D106F47011606A81422D
:1028D00001D00120D8E50020D6E5000000004242EA
:1028E0000010024070B504462546681EB0F1807F96
:1028F00001D301200FE0681E4FF0E02148610F2155
:102900004FF0FF3003F066FD00204FF0E0218861BA
:1029100007200861002070BD10B50346002200BFEB
:1029200093F83C00012801D1022010BD012083F85A
:102930003C0000BF22F0FF00CC6840EA040222F411
:1029400040708C6840EA040222F480604C6840EADF
:10295000040222F400600C6840EA040222F4805071
:102960000C6940EA040222F400504C6940EA040277
:1029700022F48040CC6940EA04021868426400BF37
:10298000002083F83C0000BF00BFCEE730B5024610
:102990000B4600BF92F83C00012801D1022030BD57
:1029A000012082F83C0000BF022082F83D00106840
:1029B00044681068816824F0700418680443106843
:1029C0004460104D1068A8420BD01068B0F1804FE1
:1029D00007D00D4D1068A84203D00C4D1068A842D6
:1029E00005D121F080015868014310688160012001
:1029F00082F83D0000BF002082F83C0000BF00BF0D
:102A0000CDE70000002C0140000400400008004019
:102A100010B504460CB9012010BD94F83D0028B94A
:102A2000002084F83C00204600F026F8022084F8BC
:102A30003D00211D206801F021F8012084F84600A6
:102A400000BF84F83E0001213F2001554020015580
:102A50004120015500BF00BF012084F842004320FF
:102A60000155442001554520015500BF012084F83F
:102A70003D000020D0E7000008B5094A01689142F6
:102A80000DD100BF0749896941F40061054A916190
:102A90001146896901F40061009100BF00BF08BDC3
:102AA000002C0140001002402DE9F04104460D4683
:102AB000002700BF94F83C00012802D10220BDE8A5
:102AC000F081012084F83C0000BF022084F83D0022
:102AD0002068866826F0770626F47F4620688660A0
:102AE0002868502833D00CDC202850D004DC002883
:102AF0004BD0102851D149E0302849D040284CD142
:102B000039E060282DD0702807D0B0F5805F03D061
:102B1000B0F5005F41D10DE041E0D5E902136A68EC
:102B2000206800F0E5FF2068866846F07706206898
:102B3000866034E0D5E902136A68206800F0D8FFA7
:102B40002068806840F480402168886027E0EA6857
:102B50006968206801F09CF85021206800F0D3FFDC
:102B60001DE0EA686968206801F0A5F86021206826
:102B700000F0C9FF13E0EA686968206801F088F88E
:102B80004021206800F0BFFF09E000BF00BF00BF88
:102B90002968206800F0B7FF01E0012700BF00BFEF
:102BA000012084F83D0000BF002084F83C0000BFF5
:102BB000384684E72DE9F04104460D4616460027C5
:102BC00000BF94F83C00012802D10220BDE8F0814A
:102BD000012084F83C0000BF36B1042E1BD0082E23
:102BE00031D00C2E5ED145E02946206800F094FFDC
:102BF0002068806940F00800216888612068806949
:102C000020F00400216888612068806929690843F0
:102C10002168886148E02946206800F0ADFF2068FF
:102C2000806940F40060216888612068806920F430
:102C300080602168886120688069296940EA0120F4
:102C40002168886130E02946206800F0C9FF2068CB
:102C5000C06940F008002168C8612068C06920F0A0
:102C600004002168C8612068C06929690843216897
:102C7000C86119E02946206800F0E6FF2068C069B5
:102C800040F400602168C8612068C06920F4806059
:102C90002168C8612068C069296940EA012021686B
:102CA000C86101E0012700BF00BF00BF002084F819
:102CB0003C0000BF384689E710B504460CB9012036
:102CC00010BD94F83D0028B9002084F83C0020464F
:102CD00000F025F8022084F83D00211D206800F056
:102CE000CDFE012084F8460000BF84F83E0001219B
:102CF0003F200155402001554120015500BF00BF34
:102D0000012084F84200432001554420015545200C
:102D1000015500BF012084F83D000020D0E7704736
:102D200000BFFEE7014608684069C0F38020B0B1EB
:102D30006FF480600A68506100200863202081F8E9
:102D40003D00002081F83E00086C40F0040008645B
:102D500000BF002081F83C0000BF01207047002028
:102D6000FCE700002DE9F8430446884615469946DD
:102D7000DDE908672068006840F480702168086019
:102D8000334600224FF001112046009700F08DF8E5
:102D900060B12068006800F48070B0F5807F02D1D7
:102DA0004FF4007020640320BDE8F88308F0FE00B3
:102DB000216808613B4632462149204600F0D4F89C
:102DC00008B10120F0E700BF0020009020684069B2
:102DD000009020688069009000BF00BF3A463146ED
:102DE000204600F03EF950B1206C042805D120683F
:102DF000006840F40070216808600120D4E7B9F150
:102E0000010F03D1E8B22168086117E0C5F307207C
:102E1000216808613A463146204600F022F950B157
:102E2000206C042805D12068006840F400702168F7
:102E300008600120B8E7E8B2216808610020B3E724
:102E40000200010070B504460D46164625E02046F6
:102E5000FFF768FF08B1012070BD681CE8B1FDF7FD
:102E6000C3FF801BA84200D8BDB920684069C0F3E9
:102E7000800090B900202063202084F83D000020CD
:102E800084F83E00206C40F02000206400BF002049
:102E900084F83C0000BF0120DEE720684069C0F3F1
:102EA00080000028D3D00020D6E72DE9F041044669
:102EB0000D4617461E46DDF8188038E0701CA8B392
:102EC000FDF792FFA0EB0800B04200D876BBC5F337
:102ED000074001280AD120684069A9B20840A9B278
:102EE000884201D101200BE0002009E020688069C0
:102EF000A9B20840A9B2884201D1012000E0002017
:102F0000B84214D100202063202084F83D00002026
:102F100084F83E00206C40F02000206400BF0020B8
:102F200084F83C0000BF0120BDE8F081FFE7C5F355
:102F3000074001280AD120684069A9B20840A9B217
:102F4000884201D101200BE0002009E0206880695F
:102F5000A9B20840A9B2884201D1012000E00020B6
:102F6000B842ABD00020DFE72DE9F04104460D4622
:102F700016461F4658E020684069C0F38020E8B13B
:102F80002068006840F40070216808606FF4806079
:102F90002168486100202063202084F83D00002043
:102FA00084F83E00206C40F00400206400BF002044
:102FB00084F83C0000BF0120BDE8F081701C90B394
:102FC000FDF712FFC01BB04200D866BBC5F3074037
:102FD00001280AD120684069A9B20840A9B28842F4
:102FE00001D101200BE0002009E020688069A9B22E
:102FF0000840A9B2884201D1012000E0002090B928
:1030000000202063202084F83D00002084F83E004A
:10301000206C40F02000206400BF002084F83C00B9
:1030200000BF0120C8E7FFE7C5F3074001280AD128
:1030300020684069A9B20840A9B2884201D10120A4
:103040000BE0002009E020688069A9B20840A9B21D
:10305000884201D1012000E0002000288BD0002010
:10306000AAE770B504460D46164625E02046FFF750
:1030700059FE08B1012070BD681CE8B1FDF7B4FE2F
:10308000801BA84200D8BDB920684069C0F3C010B9
:1030900090B900202063202084F83D00002084F8AF
:1030A0003E00206C40F02000206400BF002084F827
:1030B0003C0000BF0120DEE720684069C0F3C0107B
:1030C0000028D3D00020D6E730B50B46002100BF42
:1030D00016E00A24B4EB107F05D9302404EB1074F9
:1030E00003F8114005E0412404EB10740A3C03F896
:1030F0001140000100254C00641C1D554C1CE1B220
:103100009142E6DB30BD000008B500BF134880697E
:1031100040F02000114988610846806900F02000D5
:10312000009000BF00BF00BF0846806940F0040067
:1031300088610846806900F00400009000BF00BF6D
:1031400000BF0846806940F0080088610846806931
:1031500000F00800009000BF00BF08BD0010024052
:1031600010B50B480B4908600B484860002109481E
:103170008160C1604FF48041016100214161816142
:10318000C1610162FDF736FE08B1FDF762FA10BDBC
:103190000054004088160020A086010000B595B0BC
:1031A000002011901290139014900F9010901C21F9
:1031B00008A8FDF754F920216846FDF750F9294881
:1031C00029490860002048600021274881604FF6A7
:1031D000FF71C1600021016141618161FFF718FC4D
:1031E00008B1FDF736FA4FF48050119011A91E482E
:1031F000FFF75AFC08B1FDF72CFA1B48FFF75CFDFE
:1032000008B1FDF726FA00200F9010900FA916487C
:10321000FFF7BCFB08B1FDF71CFA60200890002006
:1032200009900A900B900C900D900E90002208A926
:103230000D48FFF7BFFC08B1FDF70BFA0020009026
:1032400001900290039004904FF4005005900020EC
:10325000079069460448FFF75FFB08B1FDF7F9F9ED
:1032600015B000BD002C0140DC16002010B5002276
:103270000D490E4801F0A7F908B1FDF7EAF90C492C
:103280000A4801F039FC08B1FDF7E3F9094907489C
:1032900000F057FE08B1FDF7DCF9044801F0F6FC38
:1032A00008B1FDF7D6F910BD14110020481B00200D
:1032B000841100206411002000BFFEE700BFFEE77C
:1032C00010B5044634B1FF224FF480610548FDF784
:1032D0009CF804E04FF480610248FDF79EF800F08E
:1032E00003F810BD4817002070B500241CE004F15D
:1032F000B001C8B2002100F0C7F80021022000F0A0
:10330000C3F80021102000F0BFF8002508E005EB0D
:10331000C411074A505C012100F0B6F8681CC5B220
:10332000802DF4DB601CC4B2082CE0DB70BD000013
:103330004817002010B5C820FDF7E0FA0021AE20A4
:1033400000F0A2F80021084600F09EF800211020AD
:1033500000F09AF80021402000F096F80021B020FB
:1033600000F092F80021812000F08EF80021FF206B
:1033700000F08AF80021A12000F086F80021A620A4
:1033800000F082F80021A82000F07EF800213F2004
:1033900000F07AF80021C82000F076F80021D32050
:1033A00000F072F80021084600F06EF80021D520E8
:1033B00000F06AF80021802000F066F80021D92092
:1033C00000F062F80021F12000F05EF80021DA2020
:1033D00000F05AF80021122000F056F80021DB20FE
:1033E00000F052F80021302000F04EF800218D202E
:1033F00000F04AF80021142000F046F80021AF2028
:1034000000F042F810BD0000F0B503461446E4B1E8
:10341000CD1701EB5575ED1003EBC515194E755D14
:103420000A46CE1701EB5676F610A1EBC607012629
:10343000BE40F6B235430846CE1701EB5676F6107D
:1034400003EBC6160F4FBD551AE0CD1701EB5575AE
:10345000ED1003EBC5150B4E755D0A46CE1701EB5B
:103460005676F610A1EBC6070126BE40B5430846C6
:10347000CE1701EB5676F61003EBC616014FBD557D
:10348000F0BD00004817002013B584B00C4664B9A5
:103490006420012104AA0B46CDE9002102900022FC
:1034A00078210A48FDF78EFD0DE0012C0BD1642038
:1034B000012104AA0B46CDE9002102904022782187
:1034C0000248FDF77FFD06B010BD00008816002001
:1034D0002DE9F05F05466AE22868B0F844A00AF0DA
:1034E0000F07002F7DD10AF01000B0BB00BF296884
:1034F000098848F60F7201EA020040F400412A6888
:10350000118000BF05F128042868B0F85010207819
:1035100001EBC000801C296801F5806131F81000C2
:10352000C0F30900E061E16960690844606100215D
:103530002846FDF728FF95F824000028CBD0A06985
:103540000028C8D195F8240040F080002968A1F82F
:103550004C00002085F8240029E2FFE705F5B4744B
:103560002868068806F4006030B32868B0F8501068
:10357000207801EBC000801D296801F5806131F8D9
:103580001000C0F30900E061A18B8BB2E28805F561
:103590002C71286802F0C4FE00BF2968098840F633
:1035A0008F7201EA020040F080012A68118000BF9A
:1035B0002846FEF780FDFAE106F4004000288AD094
:1035C00000BF2968098840F68F7201EA020040F0C6
:1035D00080012A68118000BF2868B0F85010207858
:1035E00000E07AE001EBC000801D296801F58061F0
:1035F00031F81000C0F30900E061E06990B1606942
:1036000080B1B4F81CC01FFA8CF3E28861692868A5
:1036100002F086FEE1696069084460610021284685
:10362000FDF7C1FE2868068806F40060002893D1E3
:1036300006F44050B0F5405F8ED000BF2A6829687C
:10364000B1F850100A4402F20C41084600BF03884A
:10365000C3F30903038023693E2B12D900BF2369FA
:103660005909237C03F01F0303B9491E03884FF453
:10367000004C4CEA812C1FFA8CFC43EA0C030380BB
:1036800017E0236923B9038843F40043038010E063
:1036900000BF23695908237C03F0010303B1491CCF
:1036A00003884FF6FF7C0CEA812C43EA0C0303806D
:1036B00000BF00BF00BF00BF296809884BF68F72AA
:1036C00001EA020080F4805080F4005040F4004190
:1036D00041F080012A68118069E17900286830F89A
:1036E000116006F4004000286FD000BF7A002968FE
:1036F00031F8121040F68F7201EA020040F08001AA
:103700007B002A6822F8131000BF07EB870105F53C
:10371000B47000EBC104207BB8B92868B0F8501031
:10372000207801EBC000801D296801F5806131F827
:103730001000C0F30908B8F1000F5ED0E28861699B
:103740004346286802F0ECFD57E0E078022806D1F5
:10375000324621462846FDF7A9FE80464DE000BFCF
:1037600000BF22785200296831F8121048F68F7293
:1037700001EA020040F4004141F0C00123785B00FF
:103780002A6822F8131000BF00BF2178490028687A
:1037900030F8110000F48040C0B12868B0F8501033
:1037A000207801EBC000801C296801F5806131F8A8
:1037B0001000C0F30908B8F1000F1ED0228961691A
:1037C0004346286802F0ACFD17E02AE02868B0F80C
:1037D0005010207801EBC000801D296801F5806140
:1037E00031F81000C0F30908B8F1000F05D0628964
:1037F00061694346286802F093FDE0694044E06156
:10380000606940446061A06910B12069404504D9F5
:1038100021782846FDF7C7FD03E02146286802F01D
:1038200042F806F08000002876D007EB870105F10A
:10383000280000EBC10400BF7A00296831F812109B
:1038400048F60F7201EA020040F400417B002A684A
:1038500022F8131000BFE078012876D10020A06183
:10386000207B00286BD006F0400080B300BF60785A
:10387000C0B900BF29682A68B2F8502011442278E4
:10388000022303EBC20201F5806303EB420000BF99
:103890000288C2F309020280028842F400420280D8
:1038A00000BF13E06078012810D100BF28682A68A3
:1038B000B2F8502010442278022303EBC20200F534
:1038C000806303EB420100220A8000BF37E0FFE77C
:1038D00000BF2968607800BB00BF2B68D5F800C026
:1038E000BCF850C0634494F800C04FF0060B0BEBDB
:1038F000CC0C03F5806B0BEB4C0000BFB0F800C0A4
:10390000CCF3090CA0F800C0B0F800C04CF4004C97
:10391000A0F800C000BF11E049E0607801280DD197
:103920002868B0F8500001442078062303EBC0005B
:1039300001F5806303EB40020020108000BF217876
:103940002846FDF720FD32E0FFE706F4807048BB13
:103950002868B0F85010207801EBC000801C29685E
:1039600001F5806131F81000C0F30909A0694845EC
:1039700004D9A069A0EB0900A06101E00020A061CA
:10398000A06920B921782846FDF7FDFC0FE06069A9
:1039900048446061E0694844E0612146286801F0DC
:1039A00082FF04E0324621462846FDF72BFE2868B8
:1039B000B0F8440000F4004000287FF48DADBDE86D
:1039C000F09F704708B508490968C9084FF47A7232
:1039D000B1FBF2F14143009100BF00BF00994A1EC4
:1039E00000920029F9D108BD10110020704710B5D0
:1039F000FDF7D4FB10BD00B593B0282109A8FCF752
:103A00002EFD142104A8FCF72AFD0020009001904F
:103A1000029003900120099000040A9000200B906E
:103A200001200D9002201090C10311914FF4E0117C
:103A3000129109A8FEF724FD08B1FCF70AFE0F2039
:103A4000049002200590002006904FF480600790BB
:103A500000200890022104A8FEF7FEFB08B1FCF745
:103A6000F8FD10200090002003906846FEF75CFBF4
:103A700008B1FCF7EEFD13B000BD704710B5026849
:103A8000184B984208D0B0F1804F05D0164B9842A1
:103A900002D0164B984203D122F070024B681A43B1
:103AA000104B984208D0B0F1804F05D00E4B984291
:103AB00002D00E4B984203D122F44072CB681A43D5
:103AC00022F080034C6943EA040202608B68C362FF
:103AD0000B688362034B984201D10B690363012396
:103AE000436110BD002C014000040040000800406C
:103AF00030B50C46816821F47F4142EA0325254315
:103B00002943816030BD0A46816821F0700142F08E
:103B1000070319438160704730B5026A056A25F0D2
:103B2000010505624368846924F0700424F00304ED
:103B30000D682C4322F002028D682A430D4DA842E5
:103B400006D100BF22F00802CD682A4322F0040209
:103B5000084DA84207D123F4807323F400734D6904
:103B60002B438D692B43436084614D68456302623A
:103B700030BD0000002C014030B5026A056A25F016
:103B8000100505624368846924F4E04424F4407419
:103B90000D6844EA052422F020028D6842EA0512ED
:103BA0000E4DA84207D100BF22F08002CD6842EA44
:103BB000051222F04002094DA84209D123F4806386
:103BC00023F400634D6943EA85038D6943EA850365
:103BD000436084614D688563026230BD002C014002
:103BE00030B5026A056A25F4807505624368C469C8
:103BF00024F0700424F003040D682C4322F40072B6
:103C00008D6842EA05220F4DA84207D100BF22F479
:103C10000062CD6842EA052222F48062094DA84282
:103C200009D123F4805323F400534D6943EA05136B
:103C30008D6943EA05134360C4614D68C563026240
:103C400030BD0000002C014030B5036A056A25F440
:103C5000805505624468C26922F4E04222F4407251
:103C60000D6842EA052223F400538D6843EA0533C8
:103C7000064DA84204D124F480444D6944EA8514D9
:103C80004460C2614D680564036230BD002C014090
:103C900030B50B461446026A056A25F00105056237
:103CA000816921F0F00141EA041122F00A021A436D
:103CB0008161026230BD30B50B461446026A056A66
:103CC00025F010050562816921F4704141EA043153
:103CD00022F0A00242EA03128161026230BD2DE9A6
:103CE000F04104460D46D4F8B862D4F8C072D4F856
:103CF000B80278B305EB850104F1140000EB8100F4
:103D0000806808B305EB850104F1140000EB810025
:103D100005EB8502816807F1280000EBC20000690D
:103D2000B1FBF0F200FB121070B9002105EB850227
:103D300004F1140000EB8200816000231A4629463A
:103D4000204600F0ADFE02E00020C6F8140200207C
:103D5000BDE8F081FFE70220FAE770B504460E46A1
:103D6000D4F8B8523146204600F03FFDC5F80C02A9
:103D7000D4F8B80248B1D5F80402D4F8BC12CA6825
:103D800005F503719047002070BD0220FCE770B577
:103D900004460E4600258121204600F040FC00210B
:103DA000E1620121204600F03AFC0021C4F86C11C8
:103DB0008221204600F033FC00212164D4F8B802AF
:103DC00050B1D4F8BC1248688047D4F8B80201F06A
:103DD00010F90020C4F8B802284670BD70B5054639
:103DE000D5F8B842D5F8BC0278B194F80002FF28A3
:103DF0000BD094F8012294F80002D5F8BC128B681D
:103E000021469847FF2084F80002002070BD000082
:103E100001460A2008800148704700007811002000
:103E2000014643200880014870470000001200202E
:103E3000014643200880014870470000BC11002063
:103E400001464320088001487047000044120020CA
:103E50002DE9F04104460F460026207C88B94FF436
:103E6000007302228121204600F026FD0121E1623B
:103E70004B020222204600F01FFD0121C4F86C1104
:103E80000FE0402302228121204600F015FD012190
:103E9000E16240230222204600F00EFD0121C4F819
:103EA0006C11082303228221204600F005FD012128
:103EB00021644FF4077001F09DF8C4F8B802D4F8FB
:103EC000B80208B901261CE0D4F8B852D4F8BC12E4
:103ED000086880470020C5F81402C5F81802207C45
:103EE00040B94FF4007301212046D5F8042200F0B8
:103EF000FBFC06E0402301212046D5F8042200F017
:103F0000F3FC3046BDE8F08170B50446D4F8B852F1
:103F1000D4F8B80298B1207C40B94FF40073012165
:103F20002046D5F8042200F0DFFC06E04023012102
:103F30002046D5F8042200F0D7FC002070BD0220F6
:103F4000FCE70246022011B1C2F8BC120020704703
:103F50000246D2F8B832C3F804120020704710B5F8
:103F60000346D3F8B842C4F80812C4F8102200205F
:103F700010BD2DE9FC4105460C46D5F8B86200207D
:103F8000019000900027207800F0600040B32028C6
:103F90005FD1E088E0B1207800F0800060B1E28875
:103FA0006078D5F8BC128B6831469847E288314674
:103FB000284600F0C7F812E0607886F80002A07981
:103FC00086F80102E2883146284600F09AF806E0B9
:103FD0006078D5F8BC1200228B68214698473EE0F5
:103FE000607820B10A2812D00B282AD11FE095F85A
:103FF0009C02032805D102226946284600F0A2F857
:1040000004E02146284600F070F802271FE095F8EA
:104010009C02032805D1012201A9284600F092F84C
:1040200004E02146284600F060F802270FE095F8EA
:104030009C02032804D02146284600F056F80227A7
:1040400005E02146284600F050F8022700BF00BFD7
:1040500005E02146284600F048F8022700BF00BFCF
:104060003846BDE8FC8170B504460D46D4F8B4026C
:104070002946426820469047002070BD70B504462E
:104080000D4694F89C02012804D0022803D003288E
:104090000CD101E000BF00BF6888012805D10020D5
:1040A000C4F8A402204600F05EF804E02946204649
:1040B00000F01BF800BF00BF70BD70B506460C468F
:1040C00015462B4622460021304600F00DFC00200C
:1040D00070BD70B506460C4615462B46224600219B
:1040E000304600F0DDFC002070BD70B504460D4682
:1040F0008021204600F0A8FC0021204600F0A4FC0E
:1041000070BD70B504460E4615460320C4F89402EF
:104110004FF4AE700551001D05512B46324600216B
:10412000204600F0E1FB002070BD10B504460520DC
:10413000C4F8940200231A461946204600F0D4FB26
:10414000002010BD70B504460E4615460220C4F886
:104150009402E56125622B4632460021204600F09C
:104160009FFC002070BD10B504460420C4F89402E2
:1041700000231A461946204600F092FC002010BD8C
:1041800070B505460C462DB92246064906A000F03A
:10419000DBF904E02246034903A000F0D5F9014809
:1041A00070BD00000C1E002043444320436F6E6628
:1041B000696700000246122008800148704700002D
:1041C0003011002070B505460C462DB9224606492F
:1041D00006A000F0B9F904E02246034903A000F06C
:1041E000B3F9014870BD00000C1E00204344432079
:1041F000496E7465726661636500000002460420C2
:1042000008800148704700004411002070B5054641
:104210000C462246024903A000F096F9004870BD02
:104220000C1E002053544D6963726F656C65637496
:10423000726F6E696373000070B505460C462DB948
:104240002246064906A000F07FF904E02246034911
:1042500003A000F079F9014870BD00000C1E002099
:1042600053544D3332205669727475616C20436F1C
:104270006D506F727400000070B505460C461A2030
:104280002080FCF721FB014870BD00004811002090
:1042900070B504460D46E888012804D0294620461A
:1042A000FFF723FF1EE094F89C02012804D00228A7
:1042B00003D0032810D109E000BF0020A060012234
:1042C00004F108012046FFF73DFF0AE00122211D0D
:1042D0002046FFF737FF04E029462046FFF705FF99
:1042E00000BF00BF70BDF8B504460E460020009028
:1042F0000027002570880012082875D2DFE800F03A
:10430000C7040C20C7C7A5B5207CD4F8B0120A6832
:10431000694690470746C1E0207C40B9D4F8B40212
:10432000816A6846884707460220787007E0D4F81B
:10433000B402C16A68468847074602207870ADE03B
:10434000B078062878D2DFE800F00316293C5063E5
:10435000D4F8B002406838B1207CD4F8B0124A6872
:1043600069469047074605E031462046FFF7BDFE07
:10437000681CC5B267E0D4F8B002806838B1207C10
:10438000D4F8B0128A6869469047074605E031467E
:104390002046FFF7AAFE681CC5B254E0D4F8B0026C
:1043A000C06838B1207CD4F8B012CA68694690471A
:1043B000074605E031462046FFF797FE681CC5B268
:1043C00041E0D4F8B002006938B1207CD4F8B012D2
:1043D0000A6969469047074605E031462046FFF7DF
:1043E00084FE681CC5B22EE051E0D4F8B0024069EA
:1043F00038B1207CD4F8B0124A6969469047074624
:1044000005E031462046FFF770FE681CC5B21AE091
:10441000D4F8B002806940B1207CD4F8B0128A6927
:1044200069469047074606E006E031462046FFF71A
:104430005CFE681CC5B206E031462046FFF755FE1B
:10444000681CC5B200BF00BF28E0207C30B9D4F89A
:10445000B402416B68468847074605E0314620466E
:10446000FFF743FE681CC5B218E0207C40B9D4F8C1
:10447000B402016B6846884707460720787005E05C
:1044800031462046FFF731FE681CC5B206E03146D2
:104490002046FFF72AFE681CC5B200BF00BF05B169
:1044A000F8BDBDF8000088B1F08878B1F088BDF89B
:1044B0000010884202DDBDF8000000E0F0880090A6
:1044C000BDF8002039462046FFF73CFEF08810B9C1
:1044D0002046FFF748FE00BFE2E70146002002E069
:1044E000421CD0B2491C0A78002AF9D1704770B535
:1044F00004460D4694F89C02012804D0022803D0FB
:1045000003281AD101E000BF00BFE888022804D0C8
:1045100029462046FFF7E9FD14E00120E060D4F8C9
:10452000A40218B1E06840F00200E060022204F149
:104530000C012046FFF706FE04E029462046FFF75F
:10454000D4FD00BF00BF70BD2DE9F04104460D460B
:1045500017460026FCB12046FFF7BFFF022101EB02
:10456000400038803A783046711CCEB22A5403227B
:104570003046711CCEB22A540AE014F8012B3046A2
:10458000711CCEB22A5400223046711CCEB22A547D
:1045900020780028F1D1BDE8F0810146002031B13A
:1045A000012906D0022906D0032908D105E0002000
:1045B00007E0022005E0012003E0022001E00220E4
:1045C00000BF00BF704770B504460D4616460CB9D3
:1045D000022070BDD4F8B40210B10020C4F8B402B7
:1045E0000DB1C4F8B052012084F89C022670204618
:1045F00000F004F90020ECE72DE9F04104460D46F7
:10460000002600272946D4F8C002FCF711FF064611
:104610003046FFF7C2FF07463846BDE8F0812DE976
:10462000F04104460D46002600272946D4F8C00272
:10463000FCF7C9FE06463046FFF7AFFF074638468F
:10464000BDE8F0812DE9F04104460E461746002EE4
:1046500064D104F11405D4F89402022848D1D5E9B4
:104660000301884210D9D5E90301401AE860A889FE
:1046700082B239462046FFF72CFD00231A46194620
:10468000204600F031F93EE02969A868B0FBF1F25C
:1046900001FB1200B8B92969A868884213D3A86839
:1046A000D4F8981288420ED2002211462046FFF715
:1046B00010FD0020C4F8980200231A46194620462F
:1046C00000F012F91FE0D4F8B402C06840B194F8C9
:1046D0009C02032804D1D4F8B402C168204688475C
:1046E0008021204600F0B0F92046FFF71EFD0AE0C9
:1046F000D4F89402042802D0D4F8940218B9802186
:10470000204600F0A1F994F8A002012818D1204613
:1047100000F0FAF9002084F8A00211E0D4F8B40205
:10472000406950B194F89C02032806D1D4F8B40231
:10473000314642692046904702E00220BDE8F08100
:104740000020FBE72DE9F04104460E461746BEBBAC
:1047500004F5AA75D4F89402032825D1D5E90301FC
:10476000884210D9D5E90301401AE860D5E9030170
:10477000884201D2E86800E0286982B239462046C2
:10478000FFF79BFC2FE0D4F8B402006940B194F825
:104790009C02032804D1D4F8B4020169204688475A
:1047A0002046FFF7E0FC1EE0D4F8940205281AD159
:1047B0000020C4F894020021204600F045F912E0E0
:1047C000FFE7D4F8B402806950B194F89C02032842
:1047D00006D1D4F8B402314682692046904702E0FF
:1047E0000220BDE8F0810020FBE770B504460D46CD
:1047F0002946D4F8C002FDF7A4F970BD10B50446EF
:104800001D48C0F8EC42C4F8C0021C481A490860B0
:104810000820486002211848816000218161C1613F
:104820000162FDF746FB08B1FBF713FF04F5307496
:104830001823002211462068FCF782FD582300222D
:1048400080212068FCF77CFDC023002281212068A4
:10485000FCF776FD4FF48873002201212068FCF7F5
:104860006FFD2068A4F530744FF48073002282211C
:10487000FCF766FD002010BD0C280020005C004005
:1048800010B50246D2F8C03201F08000802809D16C
:1048900001F07F0000EB800403F1280000EBC4006E
:1048A000807810BD01F07F0000EB800403F5B47048
:1048B00000EBC4008078F4E72DE9F04704460F468A
:1048C00015461E464FF00008C1462B463246394673
:1048D000D4F8C002FDF740F980464046FFF75DFE80
:1048E00081464846BDE8F0872DE9F04704460D466D
:1048F00016461F464FF00008C1463B463246294641
:10490000D4F8C002FDF76AF980464046FFF745FE3D
:1049100081464846BDE8F08710B504464023002292
:1049200011462046FFF7C8FF01214FF4AC7001513A
:1049300040214FF4B27001514023002280212046D3
:10494000FFF7BAFF0121A16140216162012084F8D3
:104950009C020020C4F894026060C4F8A402D4F859
:10496000B80228B12179D4F8B402426820469047B1
:10497000002010BD014691F89C02042803D191F853
:104980009D0281F89C020020704710B5044694F8FF
:104990009C02032808D1D4F8B402C06920B1D4F82D
:1049A000B402C16920468847002010BD0246117438
:1049B000002070472DE9F04104460D4600260027EF
:1049C0002946D4F8C002FDF75BFB06463046FFF7E8
:1049D000E4FD07463846BDE8F08170B504460D4653
:1049E000294604F52A7000F073F80120C4F89402F7
:1049F00040F2AE20005BC4F8980294F8A80200F0E0
:104A00001F0020B1012808D0022812D10BE004F5C4
:104A10002A71204600F041F913E004F52A7120467E
:104A200000F0A8FA0DE004F52A71204600F086F99E
:104A300007E094F8A80200F08001204600F004F896
:104A400000BF00BF002070BD2DE9F04104460D46B7
:104A5000002600272946D4F8C002FDF7DDF80646F7
:104A60003046FFF79AFD07463846BDE8F08170B53D
:104A7000044600250026D4F8C002FDF725FB0546B4
:104A80002846FFF78AFD0646304670BD014691F87C
:104A90009C0281F89D02042081F89C02002070474E
:104AA0002DE9F04704460D4616461F464FF0000814
:104AB000C1463B4632462946D4F8C002FDF7F0F81D
:104AC00080464046FFF769FD81464846BDE8F087CD
:104AD0000A7802704A7842708B78CA7803EB022217
:104AE00042800B794A7903EB022282808B79CA7962
:104AF00003EB0222C28070470246002011B1C2F8C7
:104B0000B41200E00220704701460020704770B5E3
:104B100004460D46A88810BBE88800BB688880283A
:104B20001DD2A87800F07F0694F89C02032804D1D7
:104B300029462046FFF7D9FA15E084F89E623146EF
:104B40002046FFF737FF2046FFF70DFB1EB102207E
:104B500084F89C0207E0012084F89C0203E02946C7
:104B60002046FFF7C2FA70BD70B504460D46022616
:104B7000D4F8B40238B1D4F8B40229460268204609
:104B8000904700B90026304670BD000070B504465D
:104B90000D46A8783649087008460078012804DDDB
:104BA00029462046FFF7A1FA60E094F89C0202280B
:104BB00002D003284FD11CE02D480078A8B12C4822
:104BC00000786060032084F89C0229480178204620
:104BD000FFF7CAFF022804D129462046FFF785FACD
:104BE00070BD2046FFF7BFFA02E02046FFF7BBFA90
:104BF0003BE01F48007870B9022084F89C021C48F2
:104C0000007860601A4801782046FFF72CFA2046A9
:104C1000FFF7A9FA1EE0164909786068884216D0A5
:104C200021792046FFF71FFA11480078606010488C
:104C300001782046FFF798FF022804D12946204634
:104C4000FFF753FACCE72046FFF78DFA02E0204643
:104C5000FFF789FA09E029462046FFF746FA04489B
:104C600001782046FFF7FFF900BF00BF00BFB7E79C
:104C70007411002070B505460C466088012804D1E7
:104C8000C5F8A4022846FFF76EFA70BD10B50446B9
:104C90002046FFF7ECFE002010BD70B505460C461F
:104CA0000026207800F0600060B1202802D0402863
:104CB0003CD100E000BFD5F8B40221468268284606
:104CC000904738E060780A2829D2DFE800F01923FD
:104CD000281E280A0528140F21462846FFF703FB43
:104CE00022E021462846FFF712FF1DE02146284614
:104CF000FFF74CFF18E021462846FFF7C9FA13E0FA
:104D000021462846FFF7F3FB0EE021462846FFF731
:104D1000B1FF09E021462846FFF7B0F904E021463B
:104D20002846FFF7E2F900BF00BF04E0214628460D
:104D3000FFF7DBF900BF00BF304670BD2DE9F04141
:104D400005460E464FF000083479307800F06000D8
:104D500060B1202802D0402871D100E000BFD5F812
:104D6000B402314682682846904700E1307800F06E
:104D70006000202809D1D5F8B4023146826828465F
:104D8000904780464046BDE8F081707800285ED0AC
:104D900001282FD0032876D195F89C02022802D052
:104DA000032820D110E054B1802C08D02146284699
:104DB000FFF74AFE80212846FFF746FE03E0314612
:104DC0002846FFF792F913E0708840B93CB1802C77
:104DD00005D0F08818B921462846FFF735FE284649
:104DE000FFF7C1F904E031462846FFF77EF900BF1E
:104DF00000BFB5E095F89C02022802D003281FD11D
:104E000010E054B1802C08D021462846FFF71CFE44
:104E100080212846FFF718FE03E031462846FFF7B9
:104E200064F912E0708848B904F07F0018B1214697
:104E30002846FFF7E1FB2846FFF795F905E091E0EA
:104E400031462846FFF751F900BF00BF88E095F8CA
:104E50009C02022802D0032876D126E034B1802CAF
:104E600004D031462846FFF740F972E004F0800094
:104E7000802809D104F07F0000EB800105F11400C7
:104E800000EB810008E066E004F07F0000EB8001A9
:104E900005F5AA7000EB8100074600203860022269
:104EA00039462846FFF74EF953E004F08000802889
:104EB0000ED104F00F0000EB800105F1140000EBAF
:104EC0008100406898B931462846FFF70EF940E066
:104ED00004F00F0000EB800105F5AA7000EB8100E3
:104EE000406820B931462846FFF7FFF831E004F06A
:104EF0008000802808D104F07F0000EB800105F1DC
:104F0000140000EB810007E004F07F0000EB80015B
:104F100005F5AA7000EB810007460CB1802C02D188
:104F20000020386009E021462846FFF7A9FC10B1AF
:104F30000120386001E0002038600222394628460E
:104F4000FFF700F905E0FFE731462846FFF7CDF807
:104F500000BF00BF04E031462846FFF7C6F800BF97
:104F600000BF04E031462846FFF7BFF800BF00BF8E
:104F7000404608E770B505460C460026207800F04C
:104F8000600030B1202802D040282AD100E000BFC4
:104F900000BF95F89C02012804D0022803D0032802
:104FA00018D101E000BF00BF207901280DDCD5F841
:104FB000B40221468268284690470646E08840B9F8
:104FC0003EB92846FFF7CFF803E021462846FFF711
:104FD0008CF804E021462846FFF787F800BF00BFA1
:104FE00004E021462846FFF780F800BF00BF0020FC
:104FF00070BD70470146014870470000FC2A002040
:10500000F0B5024600260878400032F8100048F655
:105010008F1400EA0403C87830B101280CD00228AC
:1050200005D003280BD104E043F4007309E000BF6E
:1050300007E043F4C06304E043F4806301E0012629
:1050400000BF00BF43F4004040F080000C786400D3
:1050500022F8140000BF0C78640032F8144048F6BF
:105060008F752C400D7844EA050040F4004444F06C
:1050700080040D786D0022F8154000BF087B0028E1
:105080007ED14878002852D000BF1046B2F8505068
:1050900028440D7800F5806707EB0514CD886D1066
:1050A0006D00258000BF00BF0C78640032F814004A
:1050B00000F040048CB100BF0D786D0032F815503F
:1050C00048F68F7705EA070444F4004545F0C0052B
:1050D0000F787F0022F8175000BF00BFC878012862
:1050E00013D000BF0C78640032F8144048F6BF7546
:1050F00004EA050080F0200040F4004444F08004FD
:105100000D786D0022F81540D0E100BF0C786400E6
:1051100032F8144048F6BF7504EA050040F4004434
:1051200044F080040D786D0022F81540BEE100BF08
:105130001046B2F8505028440D78042707EBC505F7
:1051400000F5806707EB4504CD886D106D00258064
:1051500000BF00BF1546B2F8504025440C78062722
:1051600007EBC40405F5806707EB4404204600BF45
:105170000788C7F3090707800F693E2F14D900E09D
:1051800073E000BF0F697C090F7C07F01F0707B9A8
:10519000641E07884FF4004C4CEA842C1FFA8CFCE8
:1051A00047EA0C07078017E00F6927B9078847F41B
:1051B0000047078010E000BF0F697C080F7C07F0F4
:1051C000010707B1641C07884FF6FF7C0CEA842CAA
:1051D00047EA0C07078000BF00BF00BF00BF0C7884
:1051E000640032F8140000F480448CB100BF0D78E4
:1051F0006D0032F8155048F68F7705EA070444F43D
:10520000004545F481450F787F0022F8175000BF14
:1052100000BF0878A8B900BF0C78640032F81440C9
:105220004BF68F7504EA050080F4805080F400503E
:1052300040F4004444F080040D786D0022F81540DD
:1052400034E100BF0C78640032F814404BF68F75DF
:1052500004EA050080F4005040F4004444F0800467
:105260000D786D0022F8154020E1C878022811D190
:1052700000BF0C78640032F8144048F68F7504EAD9
:10528000050040F4004444F4C0740D786D0022F829
:10529000154011E000BF0C78640032F8144048F665
:1052A0008F6504EA050040F4004444F080040D7862
:1052B0006D0022F8154000BF00BF00BF00BF1046C0
:1052C000B2F8505028440D7800F5806707EB0514BC
:1052D0000D896D106D00258000BF00BF00BF00BFAD
:1052E0001046B2F8505028440D78042707EBC50546
:1052F00000F5806707EB45044D896D106D00258032
:1053000000BF00BF00BF4878E8BB00BF0C78640056
:1053100032F8140000F480448CB100BF0D786D00A9
:1053200032F8155048F68F7705EA070444F4004533
:1053300045F481450F787F0022F8175000BF00BF69
:1053400000BF0C78640032F8140000F040048CB107
:1053500000BF0D786D0032F8155048F68F7705EADA
:10536000070444F4004545F0C0050F787F0022F89B
:10537000175000BF00BF00BF0C78640032F8144023
:105380004BF68F7500E020E004EA050080F48050C1
:1053900080F4005040F4004444F080040D786D0027
:1053A00022F8154000BF00BF0C78640032F81440AA
:1053B00048F6BF7504EA050040F4004444F0800458
:1053C0000D786D0022F8154070E000BF0C78640085
:1053D00032F8140000F480448CB100BF0D786D00E9
:1053E00032F8155048F68F7705EA070444F4004573
:1053F00045F481450F787F0022F8175000BF00BFA9
:1054000000BF0C78640032F8140000F040048CB146
:1054100000BF0D786D0032F8155048F68F7705EA19
:10542000070444F4004545F0C0050F787F0022F8DA
:10543000175000BF00BFC878012813D000BF0C78F8
:10544000640032F8144048F6BF7504EA050080F0A5
:10545000200040F4004444F080040D786D0022F8F0
:10546000154011E000BF0C78640032F8144048F693
:10547000BF7504EA050040F4004444F080040D7850
:105480006D0022F8154000BF00BF0C78640032F8B0
:1054900014404BF68F7504EA050040F4004444F0D4
:1054A00080040D786D0022F8154000BF3046F0BD35
:1054B00010B50446002010BD30B50246087B002818
:1054C0005BD1487860B300BF0B785B0032F8130003
:1054D00000F040038BB100BF0C78640032F8144038
:1054E00048F68F7504EA050343F4004444F0C00411
:1054F0000D786D0022F8154000BF00BF00BF0B788B
:105500005B0032F8133048F6BF7403EA040040F43D
:10551000004343F080030C78640022F8143007E164
:1055200000BF0B785B0032F8130000F480438BB1AE
:1055300000BF0C78640032F8144048F68F7504EA16
:10554000050343F4004444F481440D786D0022F8CF
:10555000154000BF00BF00BF0B785B0032F813306E
:105560004BF68F7403EA040040F4004343F08003D9
:105570000C78640022F81430DAE0487800286BD107
:1055800000BF0B785B0032F8130000F480438BB14E
:1055900000BF0C78640032F8144048F68F7504EAB6
:1055A000050343F4004444F481440D786D0022F86F
:1055B000154000BF00BF00BF0B785B0032F813003E
:1055C00000F040038BB100BF0C78640032F8144047
:1055D00048F68F7504EA050343F4004444F0C00420
:1055E0000D786D0022F8154000BF00BF00BF0B789A
:1055F0005B0032F8133048F68F7403EA040040F47D
:10560000004343F0C0030C78640022F8143000BF5C
:1056100000BF0B785B0032F813304BF68F7403EA4F
:10562000040040F4004343F080030C78640022F847
:10563000143000BF00BF0B785B0032F8133048F61F
:10564000BF7403EA040040F4004343F080030C7885
:10565000640022F814306BE000BF0B785B0032F876
:10566000130000F480438BB100BF0C78640032F863
:10567000144048F68F7504EA050343F4004444F4EB
:1056800081440D786D0022F8154000BF00BF00BFB7
:105690000B785B0032F8130000F040038BB100BFC1
:1056A0000C78640032F8144048F68F7504EA05035C
:1056B00043F4004444F0C0040D786D0022F8154016
:1056C00000BF00BF00BF0B785B0032F8133048F614
:1056D0008F7403EA040040F4004343F481430C78E0
:1056E000640022F8143000BF00BF0B785B0032F872
:1056F000133048F6BF7403EA040040F4004343F05B
:1057000080030C78640022F8143000BF00BF0B78CF
:105710005B0032F813304BF68F7403EA040040F458
:10572000004343F080030C78640022F8143000BF7B
:10573000002030BD01460020704701460020704720
:1057400010B50446012024F8400F00202080A080DE
:105750002082403C10BD01464FF43F42B1F840006A
:105760009043A1F840000020704702460020704797
:1057700030B50246087B002865D1487888B300BF61
:105780000B785B0032F8130000F040038BB100BFD0
:105790000C78640032F8144048F68F7504EA05036B
:1057A00043F4004444F0C0040D786D0022F8154025
:1057B00000BF00BFC878012845D000BF0B785B0050
:1057C00032F8133048F6BF7403EA040080F020007A
:1057D00040F4004343F080030C78640022F8143056
:1057E00031E0FFE700BF0B785B0032F8130000F4F4
:1057F00080438BB100BF0C78640032F8144048F647
:105800008F7504EA050343F4004444F481440D78A1
:105810006D0022F8154000BF00BF00BF0B785B0091
:1058200032F813304BF68F7403EA040080F4805092
:1058300080F4005040F4004343F080030C7864008F
:1058400022F8143000BF002030BD10B50246487861
:1058500098B100BF0B785B0032F8133048F6BF7484
:1058600003EA040080F0100040F4004343F080039A
:105870000C78640022F8143013E000BF0B785B0052
:1058800032F813304BF68F7403EA040080F4805032
:1058900040F4004343F080030C78640022F8143095
:1058A00000BF002010BD2DE9F04706460C46607889
:1058B000012872D12169A069884201D9256900E0D7
:1058C000A569207BA0B9ABB2E2883046616900F0DF
:1058D00056FD00BF3046B6F850201044227802230F
:1058E00003EBC20200F5806303EB42010D80C1E2CD
:1058F000E078022870D12169206A88426DD900BF02
:105900002178490036F8111048F68F7201EA02003A
:1059100040F4004141F4C0712278520026F8121080
:1059200000BF206A401B20622078400036F810003B
:1059300000F04000002874D000BF3346607868BB98
:1059400000BF3246B6F850100A4421784FF00609DD
:1059500009EBC10102F5806909EB4101084600BF6E
:10596000B0F80090C9F30909A0F800903E2D16D9AF
:1059700000BF690905F01F09B9F1000F00D1491EE8
:10598000B0F800904FF4004A4AEA812A1FFA8AFAD6
:1059900049EA0A09A0F800901CE081E21EE035B94E
:1059A000B0F8009049F40049A0F8009012E000BF60
:1059B000690805F00109B9F1000F00D0491CB0F8E1
:1059C00000904FF6FF7A0AEA812A49EA0A09A0F80C
:1059D000009000BF00BF11E07EE153E16078012834
:1059E0000CD1B6F8500003442078062101EBC0002A
:1059F00003F5806101EB400CACF8005000BF6789F3
:105A0000ABB23A463046616900F0B9FC606928449F
:105A100060612169206A884204D9206A401B2062A3
:105A200003E05EE0256A0020206200BF6078E0BBF2
:105A300000BF3246B6F850100A442178022303EB27
:105A4000C10102F5806303EB4101084600BF0388F2
:105A5000C3F3090303803E2D10D900BF690905F087
:105A60001F0303B9491E03884FF4004C4CEA812CF4
:105A70001FFA8CFC43EA0C03038014E025B9038869
:105A800043F4004303800EE000BF690805F0010302
:105A900003B1491C03884FF6FF7C0CEA812C43EAD2
:105AA0000C03038000BF00BF12E0FFE7607801280D
:105AB0000ED100BF3046B6F85020104422780223A1
:105AC00003EBC20200F5806303EB42010D8000BFCF
:105AD00000BF2789ABB23A463046616900F04FFCFF
